:020000040800F2
:10000000005000200D040008250300082703000805
:10001000290300082B0300082D030008000000003E
:100020000000000000000000000000002F03000896
:100030003103000800000000330300083503000806
:10004000550400085504000855040008550400082C
:10005000550400085504000855040008550400081C
:10006000550400085504000855040008550400080C
:1000700055040008550400085504000855040008FC
:1000800055040008550400085504000855040008EC
:1000900055040008550400085504000855040008DC
:1000A00055040008550400085504000855040008CC
:1000B00055040008550400085504000855040008BC
:1000C00055040008550400085504000855040008AC
:1000D000550400083D0300085504000855040008B5
:1000E00055040008550400085504000800000000ED
:1000F0000000000000000000000000000000000000
:0C01000000000000000000005FF808F1A3
:10010C0010B5054C237833B9044B13B10448AFF345
:10011C0000800123237010BD3C040020000000006F
:10012C004416000808B5034B1BB103490348AFF351
:10013C00008008BD000000004004002044160008A8
:10014C0030B587B000240294039404940594144BA6
:10015C009A6942F008029A619A6902F008020092C8
:10016C00009A9A6942F004029A619B6903F00403B5
:10017C000193019B0B4D22464FF44071284600F031
:10018C009BFB4FF4407302930123039304940223CB
:10019C00059302A9284600F07DFA07B030BD00BFD8
:1001AC0000100240000C014072B6FEE700B591B0A1
:1001BC002822002106A801F07DF900230193029367
:1001CC000393049305930223069301230A931023AC
:1001DC000B9306A800F08CFB68B90F230193002148
:1001EC00029103910491059101A800F0C1FD20B981
:1001FC0011B05DF804FBFFF7D7FFFFF7D5FF08B58B
:10020C0000F04AF9FFF7D2FFFFF79AFF00F004F86D
:10021C0000F098F8FEE7000008B50E480E4B03609E
:10022C004FF48273436000238360C36003614361B6
:10023C004FF4007282611022C261036243628362D6
:10024C000A23C36200F070FE00B908BDFFF7ACFFD3
:10025C00FBE700BF580400200038004010B586B002
:10026C00002302930393049305930268174B9A425D
:10027C0001D006B010BD03F5EC33DA6942F48042CC
:10028C00DA61DA6902F480420092009A9A6942F0CB
:10029C0008029A619B6903F008030193019B4FF4D8
:1002AC00204302930223039303230593084C02A9D2
:1002BC00204600F0EFF94FF48043029300230393A0
:1002CC00049302A9204600F0E5F9D2E7003800407B
:1002DC00000C014082B00E4B9A6942F001029A6107
:1002EC009A6902F001020092009ADA6942F0805297
:1002FC00DA61DB6903F080530193019B054A536873
:10030C0023F0E06343F08063536002B0704700BF9A
:10031C000010024000000140FEE7FEE7FEE7FEE7AA
:10032C00FEE770477047704708B500F0C7F808BD86
:10033C0008B5024800F098FF08BD00BFB0040020CB
:10034C007047000008B50A480A4B03604FF4E133CC
:10035C00436000238360C36003610C2242618361AC
:10036C00C36100F0CFFE00B908BDFFF71DFFFBE72E
:10037C00B00400200038014030B587B00023029350
:10038C0003930493059302681B4B9A4201D007B068
:10039C0030BD03F558439A6942F480429A619A69D8
:1003AC0002F480420092009A9A6942F004029A6127
:1003BC009B6903F004030193019B4FF400730293B8
:1003CC0002230393032305930C4D02A9284600F046
:1003DC0061F94FF48063029300240394049402A9FE
:1003EC00284600F057F922462146252000F08AF8CD
:1003FC00252000F0BFF8CAE7003801400008014092
:10040C000C480D490D4A002302E0D458C450043363
:10041C00C4188C42F9D30A4A0A4C002301E0136039
:10042C000432A242FBD3FFF78BFF01F01FF8FFF75A
:10043C00E6FE7047000000203C04002098160008DF
:10044C003C040020FC040020FEE7000010B504462C
:10045C000E4B18784FF47A73B3FBF0F30C4A106818
:10046C00B0FBF3F000F094F868B90F2C01D901201F
:10047C000AE0002221464FF0FF3000F043F8054B14
:10048C001C60002000E0012010BD00BF0400002013
:10049C00000000200800002008B5074A136843F04C
:1004AC0010031360032000F01BF80F20FFF7CEFFA2
:1004BC00FFF710FF002008BD00200240034A11681E
:1004CC00034B1B780B441360704700BFF4040020EF
:1004DC0004000020014B1868704700BFF404002092
:1004EC00074AD36823F4E0631B041B0C000200F4DE
:1004FC00E060034343F0BF6343F40033D3607047C1
:10050C0000ED00E000B5194BDB68C3F30223C3F127
:10051C00070CBCF1040F28BF4FF0040C03F1040EC0
:10052C00BEF1060F18D9033B4FF0FF3E0EFA0CFC40
:10053C0021EA0C0199400EFA03F322EA0303194352
:10054C0000280BDB0901C9B200F1604000F56140E5
:10055C0080F800135DF804FB0023E5E700F00F00C2
:10056C000901C9B2024B1954F4E700BF00ED00E0D9
:10057C0014ED00E0002807DB00F01F024009012306
:10058C009340024A42F82030704700BF00E100E07F
:10059C000138B0F1807F0BD24FF0E0235861054A4F
:1005AC00F02182F823100020986107221A6170470D
:1005BC000120704700ED00E090F82130022B06D0AE
:1005CC0004238363002380F82030012070470268E5
:1005DC00136823F00E0313600268136823F0010301
:1005EC001360036CC16B012202FA03F34B6080F8B9
:1005FC002120002380F820301846704708B590F869
:10060C002130022B03D004238363012008BD026830
:10061C00136823F00E0313600268136823F00103C0
:10062C0013600368194A934214D0143293421FD0BA
:10063C00143293421ED0143293421ED01432934281
:10064C001ED01432934202D04FF0807203E04FF46C
:10065C00801200E001220E4B5A60012380F82130F9
:10066C00002380F82030436B6BB198470020CDE716
:10067C001022F0E74FF48072EDE74FF48052EAE776
:10068C004FF48032E7E70020C0E700BF08000240CB
:10069C000000024070B582B00024A446A6E0804D54
:1006AC00AA4210D007D97F4DAA420CD005F580354F
:1006BC00AA4208D013E0A5F58015AA4203D005F58F
:1006CC007025AA4207D18A68002A58D0012A51D035
:1006DC004361082403E0A5F58015AA42F3D0BEF1CE
:1006EC00FF0F4ED80646BEF1FF0F4CD84FEA8C02D6
:1006FC0033680F25954023EA050304FA02F21343ED
:10070C0033604B6813F0805F6ED0674B9A6942F090
:10071C0001029A619B6903F001030193019B4FEA6B
:10072C009C02951C614B53F825600CF003039D0053
:10073C000F23AB4026EA03065D4B984229D003F504
:10074C008063984200F08E8003F58063984200F03D
:10075C008B8003F58063984219D004231AE0CC688F
:10076C00BDE7CC680434BAE7CC680834B7E7CC688A
:10077C000C34B4E703610824B1E70024AFE7042488
:10078C00ADE7061DAFE7ACF108029200B0E703231A
:10079C0000E00023AB4033430232444D45F8223095
:1007AC004B6813F4803F61D0424A136843EA0E034E
:1007BC0013604B6813F4003F5ED03E4A536843EA23
:1007CC000E0353604B6813F4801F5BD0394A936857
:1007DC0043EA0E0393604B6813F4001F58D0354A5C
:1007EC00D36843EA0E03D3600CF1010C0A6832FAA9
:1007FC000CF353D0012303FA0CF302EA030E33EA91
:10080C000202F1D14A68122A3FF649AF122A3FF68A
:10081C0066AF01A555F822F0D30600086B07000857
:10082C007507000887070008EB060008EB060008B0
:10083C00EB060008EB060008EB060008EB060008C8
:10084C00EB060008EB060008EB060008EB060008B8
:10085C00EB060008EB060008EB0600086F07000823
:10086C007B070008012395E7022393E7114A1368DD
:10087C0023EA0E0313609CE70E4A536823EA0E0327
:10088C0053609FE70B4A936823EA0E039360A2E739
:10089C00084AD36823EA0E03D360A5E702B070BD03
:1008AC000000221000003110001002400000014036
:1008BC0000080140000401400AB1016170470904BD
:1008CC000161704782B0084B1B68084AA2FB0323E6
:1008DC005B0A00FB03F3019300BF019B5A1E0192BC
:1008EC00002BF9D102B0704700000020D34D6210EC
:1008FC00002800F0F18170B582B00446036813F053
:10090C00010F2CD0994B5B6803F00C03042B1DD00A
:10091C00964B5B6803F00C03082B12D06368B3F59D
:10092C00803F41D0002B55D103F1804303F50433B4
:10093C001A6822F480321A601A6822F480221A6033
:10094C0037E08A4B5B6813F4803FE7D0874B1B681A
:10095C0013F4003F03D06368002B00F0BF812368C1
:10096C0013F0020F75D0814B5B6813F00C0F5FD046
:10097C007E4B5B6803F00C03082B54D02369002BCF
:10098C0000F08A807A4B01221A60FFF7A3FD05461E
:10099C00764B1B6813F0020F75D1FFF79BFD401BC4
:1009AC000228F5D903209EE1704A136843F4803382
:1009BC001360636843B3FFF78DFD05466B4B1B68F3
:1009CC0013F4003FCBD1FFF785FD401B6428F5D90C
:1009DC00032088E1B3F5A02F09D0644B1A6822F4E8
:1009EC0080321A601A6822F480221A60E1E703F15F
:1009FC008043A3F53C331A6842F480221A601A68CB
:100A0C0042F480321A60D4E7FFF764FD0546574B79
:100A1C001B6813F4003FA2D0FFF75CFD401B642859
:100A2C00F5D903205FE1514B5B6813F4803FA5D1EE
:100A3C004E4B1B6813F0020F03D02369012B40F0BF
:100A4C004F814A4A136823F0F803616943EAC103F2
:100A5C001360236813F0080F33D0A369002B5CD00C
:100A6C00434B0122C3F88024FFF734FD05463F4B6E
:100A7C005B6A13F0020F21D1FFF72CFD401B0228FB
:100A8C00F5D903202FE1394A136823F0F803616983
:100A9C0043EAC1031360DCE7354B00221A60FFF711
:100AAC0019FD0546314B1B6813F0020FD1D0FFF72F
:100ABC0011FD401B0228F5D9032014E10120FFF79A
:100ACC0001FF236813F0040F00F09680274BDB69BD
:100ADC0013F0805F34D1254BDA6942F08052DA6131
:100AEC00DB6903F080530193019B0125214B1B68AB
:100AFC0013F4807F26D0E368012B3DD0002B53D11B
:100B0C0003F1804303F504331A6A22F001021A62DE
:100B1C001A6A22F004021A6233E0154B0022C3F861
:100B2C008024FFF7D7FC0546104B5B6A13F0020FCD
:100B3C00C7D0FFF7CFFC401B0228F5D90320D2E029
:100B4C000025D3E70B4A136843F480731360FFF757
:100B5C00C1FC0646074B1B6813F4807FCBD1FFF713
:100B6C00B9FC801B6428F5D90320BCE000100240BE
:100B7C0000004242007000405F4A136A43F00103D8
:100B8C001362E36833B3FFF7A5FC06465A4B1B6AA6
:100B9C0013F0020F2FD1FFF79DFC801B41F288331D
:100BAC009842F3D903209EE0052B09D0524B1A6AC8
:100BBC0022F001021A621A6A22F004021A62E0E7B9
:100BCC004D4B1A6A42F004021A621A6A42F0010290
:100BDC001A62D6E7FFF77EFC0646474B1B6A13F0FA
:100BEC00020F08D0FFF776FC801B41F28833984245
:100BFC00F3D9032077E0E5B9E369002B72D03E4AC4
:100C0C00526802F00C02082A56D0022B17D03B4B2C
:100C1C0000221A66FFF75EFC0446374B1B6813F084
:100C2C00007F47D0FFF756FC001B0228F5D90320A4
:100C3C0059E0314AD36923F08053D361DCE72F4B61
:100C4C0000221A66FFF746FC05462B4B1B6813F077
:100C5C00007F06D0FFF73EFC401B0228F5D903208D
:100C6C0041E0236AB3F5803F1AD023494B6823F443
:100C7C007413226A606A024313434B601F4B0122B8
:100C8C001A66FFF727FC04461B4B1B6813F0007F0A
:100C9C000ED1FFF71FFC001B0228F5D9032022E020
:100CAC00154A536823F40033A1680B435360DCE707
:100CBC00002018E0002016E0012B16D00E4B5B68CC
:100CCC0003F48031226A914211D103F47013626AE9
:100CDC0093420ED1002006E001207047012002E073
:100CEC00012000E0002002B070BD0120FBE70120D4
:100CFC00F9E70120F7E700BF001002400000424274
:100D0C0086B0174B0FCB0DF1180C0CE90F0040F20D
:100D1C000123ADF80430134B5B6803F00C02082A76
:100D2C0002D0114806B07047C3F3834218326A44AC
:100D3C0012F8100C13F4803F0DD00A4B5B68C3F310
:100D4C00404318336B4413F8143C074A02FB00F081
:100D5C00B0FBF3F0E6E7054B03FB00F0E2E700BF66
:100D6C00741600080010024000127A0000093D00C1
:100D7C00002800F0A08070B50D460446524B1B684D
:100D8C0003F007038B420BD24F4A136823F007037F
:100D9C000B431360136803F007038B4240F08D8004
:100DAC00236813F0020F17D013F0040F04D0474A36
:100DBC00536843F4E0635360236813F0080F04D0C6
:100DCC00424A536843F460535360404A536823F0DB
:100DDC00F003A1680B435360236813F0010F31D06B
:100DEC006368012B20D0022B25D0384A126812F0F0
:100DFC00020F64D035494A6822F0030213434B605A
:100E0C00FFF768FB0646314B5B6803F00C03626826
:100E1C00B3EB820F16D0FFF75DFB801B41F28833DA
:100E2C009842F0D9032045E0284A126812F4003F9A
:100E3C00E0D101203EE0254A126812F0007FD9D1A2
:100E4C00012037E0204B1B6803F00703AB420AD9A3
:100E5C001D4A136823F007032B431360136803F038
:100E6C000703AB422DD1236813F0040F06D0174AA9
:100E7C00536823F4E063E1680B435360236813F079
:100E8C00080F07D0114A536823F46053216943EAD1
:100E9C00C1035360FFF734FF0C4B5B68C3F30313C0
:100EAC000B4AD35CD8400B4B18600B4B1868FFF700
:100EBC00CDFA002070BD012070470120FAE7012017
:100ECC00F8E70120F6E700BF0020024000100240C6
:100EDC005C1600080000002008000020014B186878
:100EEC00704700BF0000002008B5FFF7F7FF044B68
:100EFC005B68C3F30223034AD35CD84008BD00BF30
:100F0C00001002406C16000808B5FFF7E7FF044B11
:100F1C005B68C3F3C223034AD35CD84008BD00BF4F
:100F2C00001002406C160008002856D010B504467C
:100F3C00436A33B94368B3F5827F05D00023C3619C
:100F4C0002E00023036143610023A36294F8513053
:100F5C00002B3CD0022384F851302268136823F014
:100F6C0040031360636803F48273A26802F40442C2
:100F7C001343E26802F400621343226902F0020296
:100F8C001343626902F001021343A26902F4007276
:100F9C001343E26902F038021343226A02F0800222
:100FAC001343A26A02F40052216813430B60638B53
:100FBC00226803F0040353602268D36923F40063AE
:100FCC00D36100206065012384F8513010BD84F892
:100FDC0050302046FFF742F9BCE701207047026809
:100FEC00D36823F49073D3600268536923F0010330
:100FFC005361036B012B05D0202380F83E30002376
:10100C00036370470268D36823F01003D360F3E7DF
:10101C0090F83D30DBB2212B01D002207047836861
:10102C00B3F5805F17D0036A5A1C02621A78036802
:10103C005A60C38C9BB2013B9BB2C3844BB9026810
:10104C00D36823F08003D3600268D36843F0400375
:10105C00D360002070470369002BE4D1036A1B881E
:10106C000268C3F308035360036A02330362E0E7C8
:10107C0010B504460268136923F44053C1680B434E
:10108C00136183680269134342691A430168CB6890
:10109C0023F4B05323F00C031343CB600268536961
:1010AC0023F4407381690B4353610268134B9A42DA
:1010BC0020D0FFF719FF024602EB820202EB8202FC
:1010CC0063689B00B2FBF3F20D48A0FB02314909A7
:1010DC00642303FB11231B013233A0FB03235B09A5
:1010EC0003F0F00202EB011203F00F03216813442A
:1010FC008B6010BDFFF708FF0246DDE700380140AA
:10110C001F85EB5158B310B5044690F83D300BB326
:10111C00242384F83D302268D36823F40053D36031
:10112C002046FFF7A5FF2268136923F4904313614F
:10113C002268536923F02A0353612268D36843F46D
:10114C000053D36000202064202384F83D3084F8C1
:10115C003E3010BD80F83C30FFF70EF9D8E7012087
:10116C007047704708B50168CA6822F04002CA602F
:10117C00202280F83D20FFF7F4FF002008BD7047C7
:10118C00704708B5406A0023C385C384FFF7F8FF96
:10119C0008BD704790F83E30DBB2222B60D18368DB
:1011AC00B3F5805F46D0826AB3F5805F04D0002B24
:1011BC004DD10369002B4AD103685B681370836AB5
:1011CC0001338362C38D9BB2013B9BB2C385002B61
:1011DC0048D100B583B00268D36823F02003D360F4
:1011EC000268D36823F48073D3600268536923F0D8
:1011FC0001035361202380F83E30036B012B2CD16B
:10120C00002303630268D36823F01003D3600368E0
:10121C001A6812F0100F06D0002201921A6801927F
:10122C005B680193019B818DFFF7B3FF002003B036
:10123C005DF804FB0269002AB5D1826A03685B6819
:10124C00C3F308031380836A02338362BAE703682B
:10125C005B6803F07F031370B1E7FFF790FFE5E7DE
:10126C00022070470020704730B583B004460268F6
:10127C001368D068516913F00F0505D113F0200FD6
:10128C0002D010F0200F19D12DB111F0010119D19C
:10129C0010F4907F16D1216B012975D013F0800FBB
:1012AC0003D010F0800F40F0D78013F0400F03D024
:1012BC0010F0400F40F0D48003B030BD2046FFF753
:1012CC0069FFF9E713F0010F06D010F4807F03D00B
:1012DC00226C42F00102226413F0040F04D019B105
:1012EC00226C42F00202226413F0020F04D019B1F6
:1012FC00226C42F00402226413F0080F07D010F0A5
:10130C00200F00D119B1226C42F008022264226C29
:10131C00002AD1D013F0200F02D010F0200F21D1D1
:10132C0023685B6903F04003226C12F0080F00D1B4
:10133C0023B32046FFF753FE23685A6912F0400F7F
:10134C0018D05A6922F040025A61A36B73B1464A15
:10135C005A63A06BFFF752F90028ADD0A06B436B1A
:10136C009847A9E72046FFF715FFD9E72046FFF776
:10137C0007FFA1E72046FFF703FF9DE72046FFF795
:10138C00FFFE0023236497E713F0100F86D010F0B4
:10139C00100F83D0002301931368019353680193BA
:1013AC00019B536913F0400F32D0A16B0B685B6843
:1013BC009BB2002B80D0A08D98427FF67DAFE38549
:1013CC008B69202B08D1A18DE38D9BB2C91A89B2F0
:1013DC002046FFF7DEFE6FE7D36823F48073D360FB
:1013EC002268536923F0010353612268536923F087
:1013FC0040035361202384F83E300023236322688A
:10140C00D36823F01003D360A06BFFF7D5F8DAE7AD
:10141C00A18DE38D9BB2C91A89B2E38D9BB2002BCF
:10142C003FF44AAF00293FF447AFD36823F49073DD
:10143C00D3602268536923F001035361202384F89D
:10144C003E30002323632268D36823F01003D3605B
:10145C002046FFF79EFE2FE72046FFF7D9FD2BE72E
:10146C002046FFF77FFE27E78F11000870B50D4E61
:10147C000D4D761BB61006D0002455F8043B0134F4
:10148C009847A642F9D1094E094D00F0D5F8761BC4
:10149C00B61006D0002455F8043B01349847A642F8
:1014AC00F9D170BD8C1600088C1600089416000833
:1014BC008C160008830730B548D0541E002A3FD044
:1014CC000346CAB201E0013C3AD303F8012B9D0755
:1014DC00F9D1032C2DD9CDB245EA05250F2C45EABF
:1014EC00054536D9A4F1100222F00F0C03F1200EA1
:1014FC00E6444FEA121C03F1100242E9045542E99A
:10150C00025510327245F8D10CF1010214F00C0F97
:10151C0003EB021204F00F0C13D0ACF1040323F014
:10152C0003030433134442F8045B9342FBD10CF0E5
:10153C0003042CB1CAB21C4403F8012B9C42FBD10E
:10154C0030BD64461346002CF4D1F9E7034614462B
:10155C00BFE71A46A446E0E7024B13B1024800F07D
:10156C0005B87047000000008515000800230146EF
:10157C001A46184600F01AB838B5084B084D5B1BD4
:10158C009C1007D0043B1D44013C55F80439984786
:10159C00002CF9D1BDE8384000F054B8981600087A
:1015AC0094160008704700BF704700BF2DE9F04744
:1015BC00DFF87CA00646DAF8000098460F46914604
:1015CC00FFF7F0FF1B4B1B68D3F8484124B3656849
:1015DC001F2D26DC5EB96B1C0235DAF80000636047
:1015EC0044F82570FFF7E0FF0020BDE8F0870123E9
:1015FC0004EB8501C1F88890D4F88821AB401A43DC
:10160C00022EC4F88821C1F80881E4D1D4F88C21C9
:10161C001343C4F88C31DEE703F5A674C3F84841D4
:10162C00D5E7DAF80000FFF7BFFF4FF0FF30DCE73B
:10163C003804002088160008F8B500BFF8BC08BCB8
:10164C009E467047F8B500BFF8BC08BC9E46704774
:10165C000000000000000000010203040607080956
:10166C000000000001020304020304050607080938
:10167C000A0B0C0D0E0F10100000000010000020C3
:08168C0065150008310100089A
:041694000D0100083C
:101698000024F40001000000100000000000000019
:1016A80000000000FC02002064030020CC0300209E
:1016B8000000000000000000000000000000000022
:1016C8000000000000000000000000000000000012
:1016D8000000000000000000000000000000000002
:1016E80000000000000000000000000000000000F2
:1016F80000000000000000000000000000000000E2
:1017080000000000000000000000000000000000D1
:1017180000000000000000000000000000000000C1
:1017280000000000000000000000000000000000B1
:1017380000000000000000000000000000000000A1
:101748000000000000000000010000000000000090
:101758000E33CDAB34126DE6ECDE05000B00000055
:101768000000000000000000000000000000000071
:101778000000000000000000000000000000000061
:101788000000000000000000000000000000000051
:101798000000000000000000000000000000000041
:0C1AC8000000000000000000F8040020F6
:040000050800040DDE
:00000001FF
